{
  "contractName": "Ballot",
  "abi": [
    {
      "inputs": [],
      "stateMutability": "nonpayable",
      "type": "constructor"
    },
    {
      "inputs": [],
      "name": "candidateCount",
      "outputs": [
        {
          "internalType": "uint32",
          "name": "",
          "type": "uint32"
        }
      ],
      "stateMutability": "view",
      "type": "function",
      "constant": true
    },
    {
      "inputs": [
        {
          "internalType": "string",
          "name": "_candidateName",
          "type": "string"
        }
      ],
      "name": "addCandidate",
      "outputs": [],
      "stateMutability": "nonpayable",
      "type": "function"
    },
    {
      "inputs": [],
      "name": "getCandidates",
      "outputs": [
        {
          "internalType": "string[]",
          "name": "",
          "type": "string[]"
        }
      ],
      "stateMutability": "view",
      "type": "function",
      "constant": true
    }
  ],
  "bytecode": "0x608060405234801561001057600080fd5b5061084f806100206000396000f3fe608060405234801561001057600080fd5b50600436106100415760003560e01c806306a49fce14610046578063462e91ec14610064578063a9a981a314610080575b600080fd5b61004e61009e565b60405161005b919061053f565b60405180910390f35b61007e600480360381019061007991906106aa565b610214565b005b61008861032d565b6040516100959190610712565b60405180910390f35b606060008060009054906101000a900463ffffffff1663ffffffff1667ffffffffffffffff8111156100d3576100d261057f565b5b60405190808252806020026020018201604052801561010657816020015b60608152602001906001900390816100f15790505b50905060005b60008054906101000a900463ffffffff1663ffffffff168163ffffffff16101561020c57600160008263ffffffff16815260200190815260200160002060010180546101579061075c565b80601f01602080910402602001604051908101604052809291908181526020018280546101839061075c565b80156101d05780601f106101a5576101008083540402835291602001916101d0565b820191906000526020600020905b8154815290600101906020018083116101b357829003601f168201915b5050505050828263ffffffff16815181106101ee576101ed61078e565b5b60200260200101819052508080610204906107ec565b91505061010c565b508091505090565b6000604051806060016040528060008054906101000a900463ffffffff1663ffffffff168152602001838152602001600063ffffffff16815250905080600160008060009054906101000a900463ffffffff1663ffffffff16815260200190815260200160002060008201518160000160006101000a81548163ffffffff021916908363ffffffff16021790555060208201518160010190805190602001906102be929190610341565b5060408201518160020160006101000a81548163ffffffff021916908363ffffffff16021790555090505060008081819054906101000a900463ffffffff168092919061030a906107ec565b91906101000a81548163ffffffff021916908363ffffffff160217905550505050565b60008054906101000a900463ffffffff1681565b82805461034d9061075c565b90600052602060002090601f01602090048101928261036f57600085556103b6565b82601f1061038857805160ff19168380011785556103b6565b828001600101855582156103b6579182015b828111156103b557825182559160200191906001019061039a565b5b5090506103c391906103c7565b5090565b5b808211156103e05760008160009055506001016103c8565b5090565b600081519050919050565b600082825260208201905092915050565b6000819050602082019050919050565b600081519050919050565b600082825260208201905092915050565b60005b8381101561044a57808201518184015260208101905061042f565b83811115610459576000848401525b50505050565b6000601f19601f8301169050919050565b600061047b82610410565b610485818561041b565b935061049581856020860161042c565b61049e8161045f565b840191505092915050565b60006104b58383610470565b905092915050565b6000602082019050919050565b60006104d5826103e4565b6104df81856103ef565b9350836020820285016104f185610400565b8060005b8581101561052d578484038952815161050e85826104a9565b9450610519836104bd565b925060208a019950506001810190506104f5565b50829750879550505050505092915050565b6000602082019050818103600083015261055981846104ca565b905092915050565b6000604051905090565b600080fd5b600080fd5b600080fd5b600080fd5b7f4e487b7100000000000000000000000000000000000000000000000000000000600052604160045260246000fd5b6105b78261045f565b810181811067ffffffffffffffff821117156105d6576105d561057f565b5b80604052505050565b60006105e9610561565b90506105f582826105ae565b919050565b600067ffffffffffffffff8211156106155761061461057f565b5b61061e8261045f565b9050602081019050919050565b82818337600083830152505050565b600061064d610648846105fa565b6105df565b9050828152602081018484840111156106695761066861057a565b5b61067484828561062b565b509392505050565b600082601f83011261069157610690610575565b5b81356106a184826020860161063a565b91505092915050565b6000602082840312156106c0576106bf61056b565b5b600082013567ffffffffffffffff8111156106de576106dd610570565b5b6106ea8482850161067c565b91505092915050565b600063ffffffff82169050919050565b61070c816106f3565b82525050565b60006020820190506107276000830184610703565b92915050565b7f4e487b7100000000000000000000000000000000000000000000000000000000600052602260045260246000fd5b6000600282049050600182168061077457607f821691505b602082108114156107885761078761072d565b5b50919050565b7f4e487b7100000000000000000000000000000000000000000000000000000000600052603260045260246000fd5b7f4e487b7100000000000000000000000000000000000000000000000000000000600052601160045260246000fd5b60006107f7826106f3565b915063ffffffff82141561080e5761080d6107bd565b5b60018201905091905056fea26469706673582212201fb6e9c2f0124556cf29a76585caa0c6b46863aebbdbbc519025ea858a6c046764736f6c634300080c0033",
  "immutableReferences": {},
  "source": "pragma solidity 0.8.12;\n\ncontract Ballot {\n    struct Candidate {\n        uint32 id;\n        string name;\n        uint32 voteCount;\n    }\n\n    struct Vote {\n        address voter;\n    }\n\n    uint32 public candidateCount;\n    mapping(uint256 => Candidate) candidates;\n\n    constructor() {}\n\n    function addCandidate(string memory _candidateName) public {\n        Candidate memory newCandidate = Candidate(\n            candidateCount,\n            _candidateName,\n            0\n        );\n        candidates[candidateCount] = newCandidate;\n        candidateCount++;\n    }\n\n    function getCandidates() external view returns (string[] memory) {\n        string[] memory _names = new string[](candidateCount);\n        for (uint32 i = 0; i < candidateCount; i++) {\n            _names[i] = candidates[i].name;\n        }\n        return _names;\n    }\n}\n",
  "sourcePath": "/Users/anilrajthota/Documents/GitHub/E-Voting/contracts/Ballot.sol",
  "compiler": {
    "name": "solc",
    "version": "0.8.12+commit.f00d7308.Emscripten.clang"
  },
  "schemaVersion": "3.4.4",
  "updatedAt": "2022-02-26T20:08:13.376Z",
  "networkType": "ethereum",
  "devdoc": {
    "kind": "dev",
    "methods": {},
    "version": 1
  },
  "userdoc": {
    "kind": "user",
    "methods": {},
    "version": 1
  }
}